:100000000C9434000C9449000C9449000C94490061
:100010000C9449000C9449000C9449000C9449003C
:100020000C9449000C9449000C9449000C9449002C
:100030000C9449000C9449000C9449000C9449001C
:100040000C9449000C9449000C9449000C9449000C
:100050000C9449000C9449000C9449000C944900FC
:100060000C9449000C94490011241FBECFEFD4E03A
:10007000DEBFCDBF11E0A0E0B1E0ECE8F1E002C0EE
:1000800005900D92A631B107D9F70E948B000C9410
:10009000C4000C9400009B01AC0184E0220F331FCC
:1000A000441F551F8A95D1F760E074E284EF90E019
:1000B0000E94A200DA01C9010197A109B109892FA3
:1000C0009A2FAB2FBB278093C50021502093C400EB
:1000D0001092C00088E18093C10086E08093C20046
:1000E00008959091C00095FFFCCF8093C6000895BD
:1000F0008091C00087FFFCCF8091C6000895CF9308
:10010000DF93EC018991811103C0DF91CF910895B4
:100110000E947100F7CF60E875E280E090E00E94F5
:100120004B008CE091E00E947F000E947800C82F75
:10013000883621F480E091E00E947F008C2F0E949D
:100140007100F3CFA1E21A2EAA1BBB1BFD010DC04B
:10015000AA1FBB1FEE1FFF1FA217B307E407F50777
:1001600020F0A21BB30BE40BF50B661F771F881F53
:10017000991F1A9469F760957095809590959B01E9
:0C018000AC01BD01CF010895F894FFCF41
:10018C002861746D656761333238292048656C6C61
:06019C006F210D0A0000B6
:00000001FF
